:020000040800F2
:100000000080012081100008D10F0008D70F0008E0
:10001000DD0F0008E30F0008E90F000800000000F2
:10002000000000000000000000000000EF0F0008CA
:10003000FD0F0008000000000B1000081910000858
:10004000D1100008D1100008D1100008D11000080C
:10005000D1100008D1100008251000083310000846
:10006000411000084F100008D1100008D1100008FE
:10007000D1100008D1100008D1100008D1100008DC
:10008000D1100008D1100008D110000800000000B5
:10009000000000000000000000000000D110000877
:1000A000D1100008D1100008D1100008D1100008AC
:1000B000D1100008D1100008D1100008D11000089C
:1000C000D1100008D1100008D1100008D11000088C
:1000D000D1100008D1100008D11000080000000065
:1000E000D1100008D1100008D11000080000000055
:1000F000000000000000000000000000D110000817
:1001000000000000D1100008D1100008D110000834
:1001100000000000000000000000000000000000DF
:10012000D1100008D1100008D1100008D11000082B
:10013000D1100008000000000000000000000000D6
:10014000000000000000000000000000D1100008C6
:10015000D1100008D1100008D1100008D1100008FB
:10016000D1100008D11000080000000000000000BD
:10017000000000000000000000000000000000007F
:1001800000000000D1100008000000000000000086
:04019000D110000882
:1001940010B5054C237833B9044B13B10448AFF3BD
:1001A40000800123237010BD4800002000000000DF
:1001B400B828000808B5034B1BB103490348AFF343
:1001C400008008BD000000004C000020B828000892
:1001D40053B94AB9002908BF00281CBF4FF0FF31AA
:1001E4004FF0FF3000F074B9ADF1080C6DE904CEA6
:1001F40000F006F8DDF804E0DDE9022304B07047FE
:100204002DE9F047089D04468E46002B4DD18A42C5
:10021400944669D9B2FA82F252B101FA02F3C2F1F8
:10022400200120FA01F10CFA02FC41EA030E944089
:100234004FEA1C48210CBEFBF8F61FFA8CF708FBAA
:1002440016E341EA034306FB07F199420AD91CEB82
:10025400030306F1FF3080F01F81994240F21C81B4
:10026400023E63445B1AA4B2B3FBF8F008FB1033FC
:1002740044EA034400FB07F7A7420AD91CEB040431
:1002840000F1FF3380F00A81A74240F20781644401
:10029400023840EA0640E41B00261DB1D440002386
:1002A400C5E900433146BDE8F0878B4209D9002DEA
:1002B40000F0EF800026C5E9000130463146BDE874
:1002C400F087B3FA83F6002E4AD18B4202D38242DE
:1002D40000F2F980841A61EB030301209E46002D8D
:1002E400E0D0C5E9004EDDE702B9FFDEB2FA82F2E2
:1002F400002A40F09280A1EB0C014FEA1C471FFA40
:100304008CFE0126200CB1FBF7F307FB131140EA26
:1003140001410EFB03F0884208D91CEB010103F1F3
:10032400FF3802D2884200F2CB804346091AA4B2B5
:10033400B1FBF7F007FB101144EA01440EFB00FE89
:10034400A64508D91CEB040400F1FF3102D2A645EE
:1003540000F2BB800846A4EB0E0440EA03409CE78D
:10036400C6F12007B34022FA07FC4CEA030C20FA3A
:1003740007F401FA06F31C43F9404FEA1C4900FA5A
:1003840006F3B1FBF9F8200C1FFA8CFE09FB1811D7
:1003940040EA014108FB0EF0884202FA06F20BD94A
:1003A4001CEB010108F1FF3A80F08880884240F29A
:1003B4008580A8F102086144091AA4B2B1FBF9F0DE
:1003C40009FB101144EA014100FB0EFE8E4508D9D9
:1003D4001CEB010100F1FF346CD28E456AD902385E
:1003E400614440EA0840A0FB0294A1EB0E01A14243
:1003F400C846A64656D353D05DB1B3EB080261EBB1
:100404000E0101FA07F722FA06F3F1401F43C5E98A
:10041400007100263146BDE8F087C2F12003D840C0
:100424000CFA02FC21FA03F3914001434FEA1C4702
:100434001FFA8CFEB3FBF7F007FB10360B0C43EAF4
:10044400064300FB0EF69E4204FA02F408D91CEBA4
:10045400030300F1FF382FD29E422DD902386344A2
:100464009B1B89B2B3FBF7F607FB163341EA034142
:1004740006FB0EF38B4208D91CEB010106F1FF3891
:1004840016D28B4214D9023E6144C91A46EA004688
:1004940038E72E46284605E70646E3E61846F8E61A
:1004A4004B45A9D2B9EB020864EB0C0E0138A3E763
:1004B4004646EAE7204694E74046D1E7D0467BE744
:1004C400023B614432E7304609E76444023842E7BC
:1004D400704700BF80B500AF02F02AF900F094FB2A
:1004E40000F05AFC00F0FEFB084B1B68002B07D100
:1004F40000F022FA064B1B68184600F065FAF3E791
:10050400034B1B68184600F05FFAEDE79C000020DF
:10051400B400002080B582B000AF0346FB8002F037
:100524006DF903468E4A13608D4B1A688D4B1B6818
:10053400D31AFA2B40F2EC81FB88013B072B00F223
:10054400CD8101A252F823F06D050008C106000810
:10055400E108000899070008E1080008E10800081C
:10056400E10800083D0800087F4BF0225A6101228F
:1005740010217D4801F05AF801217B4801F03EF832
:100584000346012B08D1794B00229A70774B002245
:100594005A70764B00221A7000221021724801F022
:1005A40045F801222021704801F040F801216E48ED
:1005B40001F024F80346012B13D16D4B00221A607D
:1005C4006C4B1B68002B0CDB6A4B1B683B2B08DC59
:1005D400684B1B68684A1360674B1B68DAB2634B4D
:1005E4009A7000222021604801F020F80122402165
:1005F4005D4801F01BF801215B4800F0FFFF034652
:10060400012B1BD15D4B00221A605A4B1B68002B37
:1006140014DB584B1B683B2B10DC564B1B68564AAB
:100624001360554B1B68DAB2504B5A70534B1B681E
:100634004FF47A7202FB03F3504A13600022402104
:10064400494800F0F3FF01228021474800F0EEFF03
:100654000121454800F0D2FF0346012B1AD1484B33
:1006640000221A60434B1B68002B13DB414B1B68B1
:10067400172B0FDC3F4B1B683F4A13603E4B1B6834
:10068400DAB23A4B1A703C4B1B683E4A02FB03F346
:100694003B4A13603A4B1A68384B1B681A44344B74
:1006A4001B681344384A1360324B00221A60374BDC
:1006B40000221A602C4B00225A610FE12A4BF022CF
:1006C4005A6101221021284800F0B0FF0221264877
:1006D40000F094FF0346012B02D12D4B00221A6037
:1006E40000221021204800F0A1FF012220211E48F1
:1006F40000F09CFF02211C4800F080FF0346012B00
:1007040002D1224B09221A6000222021164800F04F
:100714008DFF01224021144800F088FF0221124875
:1007240000F06CFF0346012B02D1184B06221A601D
:10073400002240210C4800F079FF012280210A4860
:1007440000F074FF0221084800F058FF0346012B13
:1007540002D10E4B03221A60034B00225A61BDE002
:10076400C4000020C00000200000024084000020DB
:10077400A8000020A0000020B8000020AC00002049
:10078400B000002040420F00B4000020A40000206C
:100794009C000020604BF0225A61012210215E4827
:1007A40000F044FF04215C4800F028FF0346012BBD
:1007B40002D15A4B00221A6000221021564800F040
:1007C40035FF01222021544800F030FF0421524813
:1007D40000F014FF0346012B02D1504B08221A608B
:1007E400002220214C4800F021FF012240214A48E8
:1007F40000F01CFF0421484800F000FF0346012BD1
:1008040002D1464B05221A6000224021424800F0E2
:100814000DFF01228021404800F008FF04213E48DA
:1008240000F0ECFE0346012B02D13C4B02221A607D
:10083400394B00225A6151E0374BF0225A610122B0
:100844001021354800F0F2FE0821334800F0D6FEAE
:100854000346012B02D1324B01221A6000221021DF
:100864002D4800F0E3FE012220212B4800F0DEFE9B
:100874000821294800F0C2FE0346012B02D1274B70
:1008840007221A6000222021234800F0CFFE012213
:100894004021214800F0CAFE08211F4800F0AEFEA6
:1008A4000346012B02D11D4B04221A600022402171
:1008B400194800F0BBFE01228021174800F0B6FE63
:1008C4000821154800F09AFE0346012B02D1134B70
:1008D40001221A60104B00225A6100BF114B1B68A1
:1008E400114A82FB03129115DA178A1A0F4901FB88
:1008F40002F29A1A13469B0013445B001A46074BF4
:100904001B681344074A1360094B1B68094A1360A8
:1009140000BF0837BD4680BD00000240A40000208F
:100924009C000020A00000206BCA5F6B809698009A
:10093400C4000020C000002080B500AF00221A4986
:100944001A4801F0E9FD00221949184801F002FD96
:10095400174B9B781A46174B1A60154B5B781A464F
:10096400154B1A60124B1B781A46144B1A60134B22
:100974001B68134A02FB03F3104A13600E4B1B68F7
:100984004FF47A7202FB03F30B4A13600B4B1A68A1
:10099400094B1B681A44074B1B681344094A13602C
:1009A400084B1B68184680BD980000206400002096
:1009B40084000020A8000020AC000020B00000202B
:1009C40040420F00B400002080B58EB004AF7860C0
:1009D4007A684F4B83FB02139910D317C91A0B463D
:1009E4009B000B445B00D31A7B627A68494B83FB00
:1009F40002135911D317CB1A642101FB03F3D31A41
:100A0400434A82FB03129210DB17D31A3B627A68C3
:100A1400414B83FB02139911D317CB1A4FF47A710C
:100A240001FB03F3D31A3B4A82FB03125211DB1777
:100A3400D31AFB617A68394B83FB02131913D3175A
:100A4400CB1A42F2107101FB03F3D31A324A82FB30
:100A540003129211DB17D31ABB617A68304B83FB04
:100A640002135913D317CB1A2E4901FB03F3D31ADC
:100A74002A4A82FB03121213DB17D31A7B617A68AA
:100A8400294B83FB02139914D317CB1A274901FB73
:100A940003F3D31A224A82FB03125213DB17D31A2D
:100AA4003B617A68224B83FB02139915D317CB1A47
:100AB400204901FB03F3D31A1B4A82FB031292144D
:100AC400DB17D31AFB607A681B4B83FB021359169E
:100AD400D317CB1A194901FB03F3D31A144A82FB27
:100AE40003129215DB17D31ABB607B6A03933B6A2C
:100AF4000293FB690193BB6900937B693A69F968C6
:100B0400B86800F01DF800BF2837BD4680BD00BF9F
:100B1400676666661F85EB51D34D6210AD8BDB684B
:100B240089B5F814A086010083DE1B4340420F0000
:100B34006BCA5F6B80969800893BE65500E1F5052A
:100B440080B584B000AFF860B9607A603B60264A33
:100B54007B6A52F82320254B1B681A44244B5A61A4
:100B6400012001F057FE204A3B6A52F82320214B12
:100B74001B681A441E4B5A61012001F04BFE1A4AAD
:100B8400BB6952F823201C4B1B681A44184B5A614A
:100B9400012001F03FFE144A3B6852F82320174B12
:100BA4001B681A44124B5A61012001F033FE0E4AAD
:100BB400BB6852F82320124B1B681A440C4B5A6131
:100BC400012001F027FE084AFB6852F823200D4B50
:100BD4001B681A44064B5A61012001F01BFE00BF3A
:100BE4001037BD4680BD00BF14000020BC000020AB
:100BF40000080240100000200C0000200800002023
:100C0400040000200000002080B594B000AF07F17C
:100C1400200330220021184601F044FE07F10C03A2
:100C240000221A605A609A60DA601A610023BB607D
:100C34002A4B1B6C294A43F080531364274B1B6CCB
:100C440003F08053BB60BB6800237B60244B1B68AC
:100C540023F44043224A43F400431360204B1B68AF
:100C640003F440437B607B680A233B620123FB62FD
:100C740010233B6301237B630223BB630023FB63D9
:100C840010233B644FF4A8737B640423BB640723E1
:100C9400FB6407F12003184600F0E8FD0346002B2F
:100CA40001D000F039F90F23FB6002233B610023DC
:100CB4007B614FF48053BB610023FB6107F10C039C
:100CC4000221184601F04AF80346002B01D000F037
:100CD40023F900BF5037BD4680BD00BF0038024035
:100CE4000070004080B586B000AF3B1D00221A6042
:100CF4005A609A60DA601A6100233B60244B254AEB
:100D04001A60234B00225A60214B7F229A60204BA9
:100D1400FF22DA601E4B00221A611D4B00225A6129
:100D24001B4B00229A611A4801F004FA0346002B77
:100D340001D000F0F1F805233B7117237B711023D8
:100D4400BB7100233B6100237B613B1D01221946DB
:100D54000F4801F065FA0346002B01D000F0DCF8DF
:100D640004233B7005237B701123BB702323FB708A
:100D74003B4601221946064801F04AFB0346002B74
:100D840001D000F0C9F800BF1837BD4680BD00BFD0
:100D9400640000200028004080B58AB000AF07F14D
:100DA400140300221A605A609A60DA601A61002300
:100DB4003B61554B1B6B544A43F004031363524B82
:100DC4001B6B03F004033B613B690023FB604E4B48
:100DD4001B6B4D4A43F0800313634B4B1B6B03F0B7
:100DE4008003FB60FB680023BB60474B1B6B464AD8
:100DF40043F001031363444B1B6B03F00103BB601B
:100E0400BB6800237B60404B1B6B3F4A43F00203EB
:100E140013633D4B1B6B03F002037B607B68002272
:100E24007F213A4800F002FC0022F021384800F00B
:100E3400FDFB7F237B610123BB610023FB61002356
:100E44003B6207F114031946304800F053FA0323B8
:100E54007B614FF44413BB610123FB6107F114036D
:100E640019462B4800F046FA0C237B610223BB6130
:100E74000023FB6100233B6207237B6207F1140319
:100E84001946234800F036FAF0237B610123BB6145
:100E94000023FB6100233B6207F1140319461C483D
:100EA40000F028FA0C237B614FF44413BB61012347
:100EB400FB6107F114031946164800F01BFA0022DF
:100EC4000021062000F0DFF9062000F0F8F90022E6
:100ED4000021072000F0D7F9072000F0F0F90022E4
:100EE4000021082000F0CFF9082000F0E8F90022E2
:100EF4000021092000F0C7F9092000F0E0F900BF43
:100F04002837BD4680BD00BF0038024000080240BB
:100F1400000002400004024080B400AF72B600BF7B
:100F2400FEE7000080B582B000AF00237B60104B69
:100F34005B6C0F4A43F4804353640D4B5B6C03F4C6
:100F440080437B607B6800233B60094B1B6C084A31
:100F540043F080531364064B1B6C03F080533B60D7
:100F64003B68072000F084F900BF0837BD4680BD08
:100F74000038024080B588B000AF786007F10C03F8
:100F840000221A605A609A60DA601A617B681B68F2
:100F94000C4A934211D10223FB604FF40073BB61EE
:100FA40007F10C03184600F073FB0346002B01D035
:100FB400FFF7B2FF044B01221A6000BF2037BD4681
:100FC40080BD00BF002800403C0E474280B400AF03
:100FD400FEE780B400AFFEE780B400AFFEE780B464
:100FE40000AFFEE780B400AFFEE780B400AF00BFFF
:100FF400BD465DF8047B704780B400AF00BFBD46BA
:101004005DF8047B704780B400AF00BFBD465DF857
:10101400047B704780B500AF01F0DCFB00BF80BDEE
:1010240080B500AF012000F01BFB00BF80BD80B580
:1010340000AF022000F014FB00BF80BD80B500AFFC
:10104400042000F00DFB00BF80BD80B500AF082078
:1010540000F006FB00BF80BD80B400AF064BD3F8A0
:101064008830054A43F47003C2F8883000BFBD4697
:101074005DF8047B704700BF00ED00E0DFF834D07A
:101084000D480E490E4A002302E0D458C4500433DC
:10109400C4188C42F9D30B4A0B4C002301E01360B3
:1010A4000432A242FBD3FFF7D7FF01F0D7FBFFF7CF
:1010B40011FA704700800120000000204800002041
:1010C400F028000848000020CC000020FEE70000C3
:1010D40080B485B000AF78607B6803F00703FB60E1
:1010E4000C4BDB68BB60BA684FF6FF031340BB6070
:1010F400FB681A02BB68134343F0BF6343F4003335
:10110400BB60044ABB68D36000BF1437BD465DF8BA
:10111400047B704700ED00E080B400AF044BDB6853
:101124001B0A03F007031846BD465DF8047B7047AD
:1011340000ED00E080B483B000AF0346FB7197F983
:101144000730002B0BDBFB7903F01F02074997F9EB
:1011540007305B09012000FA02F241F8232000BFA6
:101164000C37BD465DF8047B704700BF00E100E02A
:1011740080B483B000AF03463960FB7197F9073040
:10118400002B0ADB3B68DAB20C4997F907301201ED
:10119400D2B20B4483F800230AE03B68DAB2084970
:1011A400FB7903F00F03043B1201D2B20B441A760D
:1011B40000BF0C37BD465DF8047B704700E100E0DA
:1011C40000ED00E080B489B000AFF860B9607A60E7
:1011D400FB6803F00703FB61FB69C3F10703042BFE
:1011E40028BF0423BB61FB690433062B02D9FB69C6
:1011F400033B00E000237B614FF0FF32BB6902FA3E
:1012040003F3DA43BB681A407B699A404FF0FF311D
:101214007B6901FA03F3D9437B680B4013431846F7
:101224002437BD465DF8047B7047000080B582B06A
:1012340000AF78607B68013BB3F1807F01D3012369
:101244000FE00A4A7B68013B53600F214FF0FF30E7
:10125400FFF78EFF054B00229A60044B07221A60A9
:10126400002318460837BD4680BD00BF10E000E0EB
:1012740080B582B000AF78607868FFF729FF00BFBF
:101284000837BD4680BD80B586B000AF0346B9605F
:101294007A60FB7300237B61FFF73EFF78617A6815
:1012A400B9687869FFF78EFF024697F90F30114647
:1012B4001846FFF75DFF00BF1837BD4680BD80B5F7
:1012C40082B000AF0346FB7197F907301846FFF769
:1012D40031FF00BF0837BD4680BD80B582B000AF86
:1012E40078607868FFF7A2FF034618460837BD46C2
:1012F40080BD000080B489B000AF786039600023FD
:101304007B6100233B610023BB610023FB6159E146
:101314000122FB6902FA03F37B613B681B687A696B
:1013240013403B613A697B699A4240F048813B68CB
:101334005B6803F00303012B05D03B685B6803F093
:101344000303022B30D17B689B68BB61FB695B00A4
:10135400032202FA03F3DB43BA691340BB613B681F
:10136400DA68FB695B0002FA03F3BA691343BB61F1
:101374007B68BA699A607B685B68BB610122FB6920
:1013840002FA03F3DB43BA691340BB613B685B6851
:101394001B0903F00102FB6902FA03F3BA69134360
:1013A400BB617B68BA695A603B685B6803F00303FE
:1013B400032B17D07B68DB68BB61FB695B000322EE
:1013C40002FA03F3DB43BA691340BB613B689A68D2
:1013D400FB695B0002FA03F3BA691343BB617B68E0
:1013E400BA69DA603B685B6803F00303022B23D11C
:1013F400FB69DA087B68083253F82230BB61FB6969
:1014040003F007039B000F2202FA03F3DB43BA69DC
:101414001340BB613B681A69FB6903F007039B0037
:1014240002FA03F3BA691343BB61FB69DA087B6808
:101434000832B96943F822107B681B68BB61FB69F9
:101444005B00032202FA03F3DB43BA691340BB6176
:101454003B685B6803F00302FB695B0002FA03F379
:10146400BA691343BB617B68BA691A603B685B68FD
:1014740003F44033002B00F0A2800023FB60574BA1
:101484005B6C564A43F480435364544B5B6C03F4E3
:101494008043FB60FB68524AFB699B08023352F8A5
:1014A4002330BB61FB6903F003039B000F2202FAA4
:1014B40003F3DB43BA691340BB617B68494A934237
:1014C40019D07B68484A934213D07B68474A9342B9
:1014D4000DD07B68464A934207D07B68454A9342C5
:1014E40001D1042308E0072306E0032304E00223D8
:1014F40002E0012300E00023FA6902F003029200F3
:101504009340BA691343BB613549FB699B080233B5
:10151400BA6941F82320384B9B68BB613B69DB43C4
:10152400BA691340BB613B685B6803F48013002B0A
:1015340003D0BA693B691343BB612F4ABB6993600B
:101544002D4BDB68BB613B69DB43BA691340BB616C
:101554003B685B6803F40013002B03D0BA693B6952
:101564001343BB61244ABB69D360234B5B68BB61F3
:101574003B69DB43BA691340BB613B685B6803F4B6
:101584000033002B03D0BA693B691343BB611A4A89
:10159400BB695360184B1B68BB613B69DB43BA6989
:1015A4001340BB613B685B6803F48033002B03D0BA
:1015B400BA693B691343BB610F4ABB691360FB699A
:1015C4000133FB61FB690F2B7FF6A2AE00BF00BFA6
:1015D4002437BD465DF8047B704700BF00380240E5
:1015E40000380140000002400004024000080240AC
:1015F400000C024000100240003C014080B485B061
:1016040000AF78600B467B807B681A697B88134047
:10161400002B02D00123FB7301E00023FB73FB7B4F
:1016240018461437BD465DF8047B704780B483B018
:1016340000AF78600B467B8013467B707B78002B71
:1016440003D07A887B689A6103E07B881A047B68FC
:101654009A6100BF0C37BD465DF8047B70470000FB
:1016640080B582B000AF0346FB80084B5A69FB8803
:101674001340002B06D0054AFB885361FB881846AB
:10168400FEF748FF00BF0837BD4680BD003C01405F
:1016940080B586B000AF786000237B6100233B6196
:1016A4007B681B6803F00103002B05D17B681B6872
:1016B40003F00403002B35D0674B00221A6001F0BD
:1016C4009DF8786108E001F099F802467B69D31A25
:1016D400022B01D90323BAE0604B1B6803F00063BB
:1016E400002BF0D17B685B689A017B689B681B07C1
:1016F4005A491343C1F88430574B01221A6001F050
:101704007DF8786108E001F079F802467B69D31A24
:10171400022B01D903239AE0504B1B6803F00063AA
:10172400002BF0D07B681B6803F00203002B00F051
:1017340083800023FB60494B1B6C484A43F0805371
:101744001364464B1B6C03F08053FB60FB68444BF3
:101754001B68434A43F48073136001F04FF87861C7
:1017640008E001F04BF802467B69D31A022B01D939
:1017740003236CE03A4B1B6803F48073002BF0D016
:10178400364B1B6F03F440733B613B69002B2FD036
:101794007B68DB6803F440733A699A4228D02F4B84
:1017A4001B6F23F440733B612E4B01221A602D4BB7
:1017B40000221A60294A3B691367284B1B6F03F008
:1017C4000103012B14D101F019F878610AE001F04A
:1017D40015F802467B69D31A41F28832934201D943
:1017E400032334E01D4B1B6F03F00203002BEED0E8
:1017F4007B68DB6803F44073B3F5407F0DD1174B6E
:101804009B6823F4F8127B68DB6823F0704323F4AD
:101814004073124913438B6005E0104B9B680F4AD9
:1018240023F4F81393600D4B1A6F7B68DB68C3F3E2
:101834000B030A4913430B677B681B6803F0080317
:10184400002B03D07B681A7C074B1A6000231846D0
:101854001837BD4680BD00BF6800474200380240CB
:1018640000700040400E4742E011474280B586B008
:1018740000AF78607B68002B01D1012367E27B68AD
:101884001B6803F00103002B75D0884B9B6803F0A1
:101894000C03042B0CD0854B9B6803F00C03082B22
:1018A40012D1824B5B6803F48003B3F5800F0BD134
:1018B4007E4B1B6803F40033002B5BD07B685B68B2
:1018C400002B57D1012342E27B685B68B3F5803F6C
:1018D40006D1764B1B68754A43F4803313601DE0D0
:1018E4007B685B68B3F5A02F0CD1704B1B686F4A03
:1018F40043F4802313606D4B1B686C4A43F48033BC
:1019040013600BE0694B1B68684A23F4803313604F
:10191400664B1B68654A23F4802313607B685B680D
:10192400002B13D000F06AFF386108E000F066FF76
:1019340002463B69D31A642B01D9032307E25B4BAC
:101944001B6803F40033002BF0D014E000F056FFC2
:10195400386108E000F052FF02463B69D31A642B59
:1019640001D90323F3E1514B1B6803F40033002B2B
:10197400F0D100E000BF7B681B6803F00203002B7A
:1019840063D04A4B9B6803F00C03002B0BD0474BEE
:101994009B6803F00C03082B1CD1444B5B6803F4D5
:1019A4008003002B16D1414B1B6803F00203002B6C
:1019B40005D07B68DB68012B01D00123C7E13B4BD9
:1019C4001B6823F0F8027B681B69DB00374913436B
:1019D4000B603AE07B68DB68002B20D0344B01229B
:1019E4001A6000F00BFF386108E000F007FF0246C0
:1019F4003B69D31A022B01D90323A8E12B4B1B68A3
:101A040003F00203002BF0D0284B1B6823F0F802EC
:101A14007B681B69DB00254913430B6015E0244BED
:101A240000221A6000F0EAFE386108E000F0E6FEE9
:101A340002463B69D31A022B01D9032387E11B4BCE
:101A44001B6803F00203002BF0D17B681B6803F0D2
:101A54000803002B36D07B685B69002B16D0154B2E
:101A640001221A6000F0CAFE386108E000F0C6FEE8
:101A740002463B69D31A022B01D9032367E10B4BBE
:101A84005B6F03F00203002BF0D01BE0094B002234
:101A94001A6000F0B3FE38610EE000F0AFFE0246BB
:101AA4003B69D31A022B07D9032350E100380240C3
:101AB40000004742800E4742884B5B6F03F00203ED
:101AC400002BEAD17B681B6803F00403002B00F0B1
:101AD40097800023FB75814B1B6C03F08053002B14
:101AE4000FD10023BB607D4B1B6C7C4A43F08053B9
:101AF40013647A4B1B6C03F08053BB60BB680123F7
:101B0400FB75774B1B6803F48073002B18D1744B5F
:101B14001B68734A43F48073136000F06FFE3861EE
:101B240008E000F06BFE02463B69D31A022B01D990
:101B340003230CE16A4B1B6803F48073002BF0D081
:101B44007B689B68012B06D1644B1B6F634A43F08F
:101B5400010313671CE07B689B68052B0CD15F4B6A
:101B64001B6F5E4A43F0040313675C4B1B6F5B4AB5
:101B740043F0010313670BE0584B1B6F574A23F0E4
:101B840001031367554B1B6F544A23F00403136777
:101B94007B689B68002B15D000F030FE38610AE0AA
:101BA40000F02CFE02463B69D31A41F2883293427C
:101BB40001D90323CBE0494B1B6F03F00203002B35
:101BC400EED014E000F01AFE38610AE000F016FED0
:101BD40002463B69D31A41F28832934201D9032366
:101BE400B5E03E4B1B6F03F00203002BEED1FB7DEF
:101BF400012B05D1394B1B6C384A23F080531364F5
:101C04007B689B69002B00F0A180344B9B6803F038
:101C14000C03082B5CD07B689B69022B41D1314BB0
:101C240000221A6000F0EAFD386108E000F0E6FDE9
:101C340002463B69D31A022B01D9032387E0274BC1
:101C44001B6803F00073002BF0D17B68DA697B68B2
:101C54001B6A1A437B685B6A9B011A437B689B6A15
:101C64005B08013B1B041A437B68DB6A1B061B49A8
:101C740013434B601B4B01221A6000F0BFFD386117
:101C840008E000F0BBFD02463B69D31A022B01D9E0
:101C940003235CE0114B1B6803F00073002BF0D0AE
:101CA40054E0104B00221A6000F0A8FD386108E0EF
:101CB40000F0A4FD02463B69D31A022B01D9032389
:101CC40045E0064B1B6803F00073002BF0D13DE0A8
:101CD4007B689B69012B07D1012338E0003802405F
:101CE40000700040600047421B4B5B68FB607B68F0
:101CF4009B69012B28D0FB6803F480027B68DB69B5
:101D04009A4221D1FB6803F03F027B681B6A9A4226
:101D14001AD1FA6847F6C07313407A68526A92017E
:101D2400934211D1FB6803F440327B689B6A5B08E1
:101D3400013B1B049A4207D1FB6803F070627B6885
:101D4400DB6A1B069A4201D0012300E000231846F7
:101D54001837BD4680BD00BF0038024080B584B04E
:101D640000AF786039607B68002B01D10123CCE09F
:101D7400684B1B6803F007033A689A420CD9654B19
:101D84003A68D2B21A70634B1B6803F007033A68CF
:101D94009A4201D00123B8E07B681B6803F0020378
:101DA400002B20D07B681B6803F00403002B05D0B4
:101DB400594B9B68584A43F4E05393607B681B6813
:101DC40003F00803002B05D0534B9B68524A43F49D
:101DD40060439360504B9B6823F0F0027B689B68E0
:101DE4004D4913438B607B681B6803F00103002B90
:101DF40044D07B685B68012B07D1474B1B6803F415
:101E04000033002B19D101237FE07B685B68022B30
:101E140003D07B685B68032B07D13F4B1B6803F03F
:101E24000073002B09D101236FE03B4B1B6803F0C7
:101E34000203002B01D1012367E0374B9B6823F099
:101E440003027B685B68344913438B6000F0D6FC63
:101E5400F8600AE000F0D2FC0246FB68D31A41F2B3
:101E64008832934201D903234FE02B4B9B6803F044
:101E74000C027B685B689B009A42EBD1254B1B6884
:101E840003F007033A689A420CD2224B3A68D2B262
:101E94001A70204B1B6803F007033A689A4201D07A
:101EA400012332E07B681B6803F00403002B08D095
:101EB400194B9B6823F4E0527B68DB681649134393
:101EC4008B607B681B6803F00803002B09D0124B5E
:101ED4009B6823F460427B681B69DB000E49134353
:101EE4008B6000F021F802460B4B9B681B0903F042
:101EF4000F030A49CB5C22FA03F3094A1360094B26
:101F04001B68184600F036FC002318461037BD46FF
:101F140080BD00BF003C024000380240D0280008C9
:101F24003C000020400000202DE9B04F94B000AFE9
:101F340000237B640023FB6400233B640023BB6415
:101F4400794B9B6803F00C03082B0DD0082B00F28F
:101F5400E180002B02D0042B03D0DBE0734BBB6485
:101F6400DBE0734BBB64D8E06F4B5B6803F03F036B
:101F74007B646D4B5B6803F48003002B63D06A4B76
:101F84005B689B090022BB63FA63BB6BC3F3080362
:101F94003B6300237B63D7E90C4522462B464FF075
:101FA40000004FF00001590141EAD261500102469C
:101FB4000B462146511A3961294663EB01037B61C3
:101FC4004FF000024FF00003D7E904AB59468B01F0
:101FD400514643EA916351468A015146B2EB0108E6
:101FE400594663EB01094FF000024FF000034FEA3A
:101FF400C90343EA58734FEAC802904699462346F8
:1020040018EB0303BB602B4649EB0303FB604FF063
:1020140000024FF00003D7E9024529464B0221464E
:1020240043EAD15321464A02104619467B6C0022EA
:10203400BB62FA62D7E90A23FEF7CAF802460B46E6
:102044001346FB6458E0384B5B689B090022184632
:102054001146C0F308033B6200237B62D7E9088979
:1020640042464B464FF000004FF00001590141EA4F
:10207400D261500102460B464146B2EB010A494681
:1020840063EB010B4FF000024FF000034FEA8B1398
:1020940043EA9A634FEA8A12B2EB0A0463EB0B0534
:1020A4004FF000024FF00003EB0043EA5473E200E8
:1020B40014461D464346E3183B604B4645EB030379
:1020C4007B604FF000024FF00003D7E9004529463A
:1020D4008B02214643EA915321468A02104619464F
:1020E4007B6C0022BB61FA61D7E90623FEF770F826
:1020F40002460B461346FB640B4B5B681B0C03F058
:10210400030301335B003B64FA6C3B6CB2FBF3F3F7
:10211400BB6402E0054BBB6400BFBB6C1846503780
:10212400BD46BDE8B08F00BF003802400024F40073
:1021340000127A0080B584B000AF78600123FB738D
:102144007B68002B01D1012366E07B685B7FDBB2F7
:10215400002B05D17B6800221A777868FEF70AFF06
:102164007B6802225A777B681B68CA225A627B68A2
:102174001B6853225A62786800F045FA0346FB73E1
:10218400FB7B002B2CD17B681B689B687A681268E8
:1021940023F4E00323F0400393607B681B68996891
:1021A4007B685A687B681B691A437B685B691A43BE
:1021B4007B681B680A439A607B681B687A68D268EC
:1021C4001A617B681B6819697B689B681A047B68C1
:1021D4001B680A431A61786800F04CFA0346FB73E3
:1021E400FB7B002B13D17B681B681A6C7B681B6814
:1021F40022F480221A647B681B68196C7B689A69D4
:102204007B681B680A431A647B6801225A777B68DF
:102214001B68FF225A62FB7B18461037BD4680BDFF
:1022240090B587B000AFF860B9607A6000237B6135
:10223400FB681B7F012B01D1022387E0FB6801228D
:102244001A77FB6802225A777B68002B26D1FB6839
:102254001B689B6803F04003002B02D1BB6800227B
:10226400DA70BB681B78184600F029FA03461C0490
:10227400BB685B78184600F022FA03461B021C4335
:10228400BB689B78184600F01AFA034644EA030236
:10229400BB68DB789B0513437B6118E0FB681B6814
:1022A4009B6803F04003002B02D1BB680022DA7064
:1022B400BB681B781A04BB685B781B021343BA68BB
:1022C40092781A43BB68DB789B0513437B61FB68F8
:1022D4001B68CA225A62FB681B6853225A62F86858
:1022E40000F091F90346FB74FB7C002B20D1FB68C2
:1022F4001A687B6903F07F3323F0FE431360FB68A5
:102304001B689A68FB681B6822F480229A60FB6849
:102314001B689968BB68DA68BB681B691A43FB6869
:102324001B680A439A60F86800F0A4F90346FB743A
:10233400FB7C002B02D1FB6801225A77FB681B68E7
:10234400FF225A62FB6800221A77FB7C18461C376E
:10235400BD4690BD80B586B000AFF860B9607A60C4
:1023640000237B61FB681B689A6ABB685A60FB6840
:102374001B681B69C3F30E02BB689A60FB681B6889
:102384001B6803F07F3323F0FE437B617B691B0CE6
:10239400DBB203F03F03DAB2BB681A707B691B0A35
:1023A400DBB203F07F03DAB2BB685A707B69DBB23D
:1023B40003F07F03DAB2BB689A707B699B0DDBB2D2
:1023C40003F00103DAB2BB68DA707B68002B1AD120
:1023D400BB681B78184600F08FF903461A46BB68A1
:1023E4001A70BB685B78184600F086F903461A46F3
:1023F400BB685A70BB689B78184600F07DF90346A9
:102404001A46BB689A70002318461837BD4680BD2B
:1024140090B587B000AFF860B9607A6000237B6143
:10242400FB681B7F012B01D1022371E0FB680122B1
:102434001A77FB6802225A777B68002B0ED1BB689F
:102444005B7803F01003002B08D0BB685B7823F0A3
:102454001003DBB20A33DAB2BB685A707B68002B14
:102464001CD1BB68DB78184600F029F903461C042C
:10247400BB685B78184600F022F903461B021C4334
:10248400BB689B78184600F01AF9034644EA030235
:10249400BB681B785B0313437B610EE0BB68DB788E
:1024A4001A04BB685B781B021343BA6892781A4318
:1024B400BB681B785B0313437B61FB681B68CA2200
:1024C4005A62FB681B6853225A62F86800F09BF852
:1024D4000346FB74FB7C002B0CD1FB681A687B69F8
:1024E40023F07F4323F0C0035360F86800F0C2F880
:1024F4000346FB74FB7C002B02D1FB6801225A7754
:10250400FB681B68FF225A62FB6800221A77FB7C77
:1025140018461C37BD4690BD80B586B000AFF86044
:10252400B9607A6000237B61FB681B685B6823F0F9
:102534007F4323F0C0037B617B691B0CDAB2BB6869
:10254400DA707B691B0ADBB203F01F03DAB2BB68E3
:102554005A707B69DBB203F03F03DAB2BB689A704E
:102564007B695B0BDBB203F00703DAB2BB681A705A
:102574007B68002B1AD1BB68DB78184600F0BCF8E6
:1025840003461A46BB68DA70BB685B78184600F0ED
:10259400B3F803461A46BB685A70BB689B78184662
:1025A40000F0AAF803461A46BB689A70002318463E
:1025B4001837BD4680BD80B584B000AF7860002375
:1025C400FB607B681B68DA687B681B6822F0A002EA
:1025D400DA6000F013F9F86009E000F00FF9024640
:1025E400FB68D31AB3F57A7F01D9032307E07B682C
:1025F4001B68DB6803F02003002BEED00023184691
:102604001037BD4680BD80B584B000AF786000232C
:10261400BB600023FB737B681B68DB6803F040032B
:10262400002B22D17B681B68DA687B681B6842F048
:102634008002DA6000F0E2F8B8600CE000F0DEF846
:102644000246BB68D31AB3F57A7F04D97B680422A7
:102654005A770123FB737B681B68DB6803F0400334
:10266400002B02D1FB7B012BE8D1FB7B18461037F2
:10267400BD4680BD80B584B000AF78600023FB7395
:102684007B681B68DA687B681B6822F08002DA606A
:102694007B681B689B6803F02003002B0AD17868D1
:1026A400FFF789FF0346002B04D07B6804225A7786
:1026B4000123FB73FB7B18461037BD4680BD80B4F5
:1026C40085B000AF0346FB710023FB7305E0FB7B81
:1026D4000133FB73FB790A3BFB71FB79092BF6D8B9
:1026E400FB7B1B01DAB2FB791343DBB218461437C8
:1026F400BD465DF8047B704780B485B000AF0346E7
:10270400FB710023FB73FB791B09DBB21A469200B1
:1027140013445B00FB73FB7903F00F03DAB2FB7B1A
:102724001344DBB218461437BD465DF8047B70478A
:1027340080B500AF0E4B1B680D4A43F40073136061
:102744000B4B1B680A4A43F480631360084B1B68F5
:10275400074A43F4807313600320FEF789FD0020C9
:1027640000F008F8FEF7DEFB0023184680BD00BF2A
:10277400003C024080B582B000AF7860124B1A680A
:10278400124B1B7819464FF47A73B3FBF1F3B2FB87
:10279400F3F31846FEF7A1FD0346002B01D00123F5
:1027A4000EE07B680F2B0AD8002279684FF0FF30C7
:1027B400FEF769FD064A7B681360002300E00123ED
:1027C40018460837BD4680BD3C0000204400002068
:1027D4004000002080B400AF064B1B781A46064B1D
:1027E4001B681344044A136000BFBD465DF8047BB4
:1027F400704700BF44000020C800002080B400AF30
:10280400034B1B681846BD465DF8047B704700BF48
:10281400C800002080B584B000AF7860FFF7EEFFF9
:10282400B8607B68FB60FB68B3F1FF3F05D00A4BDF
:102834001B781A46FB681344FB6000BFFFF7DEFFFA
:102844000246BB68D31AFA689A42F7D800BF00BFA1
:102854001037BD4680BD00BF4400002070B50D4D4B
:102864000D4C641BA4100026A64209D10B4D0C4C40
:1028740000F020F8641BA4100026A64205D170BD08
:1028840055F8043B98470136EEE755F8043B984762
:102894000136F2E7E8280008E8280008E8280008DC
:1028A400EC28000802440346934200D1704703F821
:1028B400011BF9E7F8B500BFF8BC08BC9E46704799
:0C28C400F8B500BFF8BC08BC9E46704789
:1028D00000000000000000000102030406070809D0
:0828E00024D9FF7F0100000074
:0428E800B90100082A
:0428EC00950100084A
:1028F0007000000060000000400000003000000098
:1029000010000000000000000100000002000000B4
:1029100003000000040000000500000006000000A5
:102920000700000008000000090000000024F40077
:0829300010000000010000008E
:04000005080010815E
:00000001FF
